{
  "_format": "hh-sol-artifact-1",
  "contractName": "Payments",
  "sourceName": "contracts/Payments.sol",
  "abi": [
    {
      "inputs": [
        {
          "internalType": "address",
          "name": "_feeCollector",
          "type": "address"
        },
        {
          "internalType": "uint256",
          "name": "_feeBps",
          "type": "uint256"
        },
        {
          "internalType": "uint256",
          "name": "_usdThresholdInWei",
          "type": "uint256"
        }
      ],
      "stateMutability": "nonpayable",
      "type": "constructor"
    },
    {
      "anonymous": false,
      "inputs": [
        {
          "indexed": true,
          "internalType": "address",
          "name": "from",
          "type": "address"
        },
        {
          "indexed": true,
          "internalType": "address",
          "name": "to",
          "type": "address"
        },
        {
          "indexed": false,
          "internalType": "uint256",
          "name": "amount",
          "type": "uint256"
        },
        {
          "indexed": false,
          "internalType": "uint256",
          "name": "fee",
          "type": "uint256"
        },
        {
          "indexed": false,
          "internalType": "string",
          "name": "message",
          "type": "string"
        }
      ],
      "name": "PaymentSent",
      "type": "event"
    },
    {
      "inputs": [],
      "name": "feeBps",
      "outputs": [
        {
          "internalType": "uint256",
          "name": "",
          "type": "uint256"
        }
      ],
      "stateMutability": "view",
      "type": "function"
    },
    {
      "inputs": [],
      "name": "feeCollector",
      "outputs": [
        {
          "internalType": "address",
          "name": "",
          "type": "address"
        }
      ],
      "stateMutability": "view",
      "type": "function"
    },
    {
      "inputs": [
        {
          "internalType": "address",
          "name": "to",
          "type": "address"
        },
        {
          "internalType": "string",
          "name": "message",
          "type": "string"
        }
      ],
      "name": "sendPayment",
      "outputs": [],
      "stateMutability": "payable",
      "type": "function"
    },
    {
      "inputs": [],
      "name": "usdThresholdInWei",
      "outputs": [
        {
          "internalType": "uint256",
          "name": "",
          "type": "uint256"
        }
      ],
      "stateMutability": "view",
      "type": "function"
    }
  ],
  "bytecode": "0x608060405234801561001057600080fd5b50604051610af9380380610af983398181016040528101906100329190610121565b826000806101000a81548173ffffffffffffffffffffffffffffffffffffffff021916908373ffffffffffffffffffffffffffffffffffffffff1602179055508160018190555080600281905550505050610174565b600080fd5b600073ffffffffffffffffffffffffffffffffffffffff82169050919050565b60006100b88261008d565b9050919050565b6100c8816100ad565b81146100d357600080fd5b50565b6000815190506100e5816100bf565b92915050565b6000819050919050565b6100fe816100eb565b811461010957600080fd5b50565b60008151905061011b816100f5565b92915050565b60008060006060848603121561013a57610139610088565b5b6000610148868287016100d6565b93505060206101598682870161010c565b925050604061016a8682870161010c565b9150509250925092565b610976806101836000396000f3fe60806040526004361061003f5760003560e01c806324a9d8531461004457806385d6bff11461006f578063c415b95c1461008b578063fd72ab59146100b6575b600080fd5b34801561005057600080fd5b506100596100e1565b6040516100669190610435565b60405180910390f35b6100896004803603810190610084919061051d565b6100e7565b005b34801561009757600080fd5b506100a06103f2565b6040516100ad919061058c565b60405180910390f35b3480156100c257600080fd5b506100cb610416565b6040516100d89190610435565b60405180910390f35b60015481565b6000341161012a576040517f08c379a000000000000000000000000000000000000000000000000000000000815260040161012190610604565b60405180910390fd5b600073ffffffffffffffffffffffffffffffffffffffff168373ffffffffffffffffffffffffffffffffffffffff1603610199576040517f08c379a000000000000000000000000000000000000000000000000000000000815260040161019090610670565b60405180910390fd5b6000343373ffffffffffffffffffffffffffffffffffffffff16316101be91906106bf565b905060006002548210156101ea57612710600154346101dd91906106f3565b6101e79190610764565b90505b600081346101f891906106bf565b905060008673ffffffffffffffffffffffffffffffffffffffff1682604051610220906107c6565b60006040518083038185875af1925050503d806000811461025d576040519150601f19603f3d011682016040523d82523d6000602084013e610262565b606091505b50509050806102a6576040517f08c379a000000000000000000000000000000000000000000000000000000000815260040161029d90610827565b60405180910390fd5b600083111561037e5760008060009054906101000a900473ffffffffffffffffffffffffffffffffffffffff1673ffffffffffffffffffffffffffffffffffffffff16846040516102f6906107c6565b60006040518083038185875af1925050503d8060008114610333576040519150601f19603f3d011682016040523d82523d6000602084013e610338565b606091505b505090508061037c576040517f08c379a000000000000000000000000000000000000000000000000000000000815260040161037390610893565b60405180910390fd5b505b8673ffffffffffffffffffffffffffffffffffffffff163373ffffffffffffffffffffffffffffffffffffffff167fe932c2fd6649c1e57699998a2520fbb85815ebfef01d9dc99bd02a721dbf277a84868a8a6040516103e19493929190610900565b60405180910390a350505050505050565b60008054906101000a900473ffffffffffffffffffffffffffffffffffffffff1681565b60025481565b6000819050919050565b61042f8161041c565b82525050565b600060208201905061044a6000830184610426565b92915050565b600080fd5b600080fd5b600073ffffffffffffffffffffffffffffffffffffffff82169050919050565b60006104858261045a565b9050919050565b6104958161047a565b81146104a057600080fd5b50565b6000813590506104b28161048c565b92915050565b600080fd5b600080fd5b600080fd5b60008083601f8401126104dd576104dc6104b8565b5b8235905067ffffffffffffffff8111156104fa576104f96104bd565b5b602083019150836001820283011115610516576105156104c2565b5b9250929050565b60008060006040848603121561053657610535610450565b5b6000610544868287016104a3565b935050602084013567ffffffffffffffff81111561056557610564610455565b5b610571868287016104c7565b92509250509250925092565b6105868161047a565b82525050565b60006020820190506105a1600083018461057d565b92915050565b600082825260208201905092915050565b7f5061796d656e74206d757374206265203e203000000000000000000000000000600082015250565b60006105ee6013836105a7565b91506105f9826105b8565b602082019050919050565b6000602082019050818103600083015261061d816105e1565b9050919050565b7f526563697069656e742072657175697265640000000000000000000000000000600082015250565b600061065a6012836105a7565b915061066582610624565b602082019050919050565b600060208201905081810360008301526106898161064d565b9050919050565b7f4e487b7100000000000000000000000000000000000000000000000000000000600052601160045260246000fd5b60006106ca8261041c565b91506106d58361041c565b92508282039050818111156106ed576106ec610690565b5b92915050565b60006106fe8261041c565b91506107098361041c565b92508282026107178161041c565b9150828204841483151761072e5761072d610690565b5b5092915050565b7f4e487b7100000000000000000000000000000000000000000000000000000000600052601260045260246000fd5b600061076f8261041c565b915061077a8361041c565b92508261078a57610789610735565b5b828204905092915050565b600081905092915050565b50565b60006107b0600083610795565b91506107bb826107a0565b600082019050919050565b60006107d1826107a3565b9150819050919050565b7f526563697069656e74207472616e73666572206661696c656400000000000000600082015250565b60006108116019836105a7565b915061081c826107db565b602082019050919050565b6000602082019050818103600083015261084081610804565b9050919050565b7f466565207472616e73666572206661696c656400000000000000000000000000600082015250565b600061087d6013836105a7565b915061088882610847565b602082019050919050565b600060208201905081810360008301526108ac81610870565b9050919050565b82818337600083830152505050565b6000601f19601f8301169050919050565b60006108df83856105a7565b93506108ec8385846108b3565b6108f5836108c2565b840190509392505050565b60006060820190506109156000830187610426565b6109226020830186610426565b81810360408301526109358184866108d3565b90509594505050505056fea2646970667358221220ec011e8ba85b002ff1d25be2ce1dfd5ceddb3d32516367763e0a71cfde32245864736f6c634300081c0033",
  "linkReferences": {},
  "deployedLinkReferences": {}
}