{
  "_format": "hh-sol-artifact-1",
  "contractName": "Payments",
  "sourceName": "contracts/Payments.sol",
  "abi": [
    {
      "inputs": [
        {
          "internalType": "address",
          "name": "initialOwner",
          "type": "address"
        },
        {
          "internalType": "address",
          "name": "_feeCollector",
          "type": "address"
        },
        {
          "internalType": "uint256",
          "name": "_feeBps",
          "type": "uint256"
        },
        {
          "internalType": "uint256",
          "name": "_usdThresholdInWei",
          "type": "uint256"
        }
      ],
      "stateMutability": "nonpayable",
      "type": "constructor"
    },
    {
      "inputs": [
        {
          "internalType": "address",
          "name": "owner",
          "type": "address"
        }
      ],
      "name": "OwnableInvalidOwner",
      "type": "error"
    },
    {
      "inputs": [
        {
          "internalType": "address",
          "name": "account",
          "type": "address"
        }
      ],
      "name": "OwnableUnauthorizedAccount",
      "type": "error"
    },
    {
      "anonymous": false,
      "inputs": [
        {
          "indexed": false,
          "internalType": "uint256",
          "name": "newFeeBps",
          "type": "uint256"
        }
      ],
      "name": "FeeBpsUpdated",
      "type": "event"
    },
    {
      "anonymous": false,
      "inputs": [
        {
          "indexed": false,
          "internalType": "address",
          "name": "newCollector",
          "type": "address"
        }
      ],
      "name": "FeeCollectorUpdated",
      "type": "event"
    },
    {
      "anonymous": false,
      "inputs": [
        {
          "indexed": true,
          "internalType": "address",
          "name": "previousOwner",
          "type": "address"
        },
        {
          "indexed": true,
          "internalType": "address",
          "name": "newOwner",
          "type": "address"
        }
      ],
      "name": "OwnershipTransferred",
      "type": "event"
    },
    {
      "anonymous": false,
      "inputs": [
        {
          "indexed": true,
          "internalType": "address",
          "name": "from",
          "type": "address"
        },
        {
          "indexed": true,
          "internalType": "address",
          "name": "to",
          "type": "address"
        },
        {
          "indexed": false,
          "internalType": "uint256",
          "name": "amount",
          "type": "uint256"
        },
        {
          "indexed": false,
          "internalType": "uint256",
          "name": "fee",
          "type": "uint256"
        },
        {
          "indexed": false,
          "internalType": "string",
          "name": "message",
          "type": "string"
        }
      ],
      "name": "PaymentSent",
      "type": "event"
    },
    {
      "anonymous": false,
      "inputs": [
        {
          "indexed": false,
          "internalType": "uint256",
          "name": "newThreshold",
          "type": "uint256"
        }
      ],
      "name": "ThresholdUpdated",
      "type": "event"
    },
    {
      "inputs": [],
      "name": "feeBps",
      "outputs": [
        {
          "internalType": "uint256",
          "name": "",
          "type": "uint256"
        }
      ],
      "stateMutability": "view",
      "type": "function"
    },
    {
      "inputs": [],
      "name": "feeCollector",
      "outputs": [
        {
          "internalType": "address",
          "name": "",
          "type": "address"
        }
      ],
      "stateMutability": "view",
      "type": "function"
    },
    {
      "inputs": [],
      "name": "owner",
      "outputs": [
        {
          "internalType": "address",
          "name": "",
          "type": "address"
        }
      ],
      "stateMutability": "view",
      "type": "function"
    },
    {
      "inputs": [],
      "name": "renounceOwnership",
      "outputs": [],
      "stateMutability": "nonpayable",
      "type": "function"
    },
    {
      "inputs": [
        {
          "internalType": "address",
          "name": "to",
          "type": "address"
        },
        {
          "internalType": "string",
          "name": "message",
          "type": "string"
        }
      ],
      "name": "sendPayment",
      "outputs": [],
      "stateMutability": "payable",
      "type": "function"
    },
    {
      "inputs": [
        {
          "internalType": "uint256",
          "name": "_newFeeBps",
          "type": "uint256"
        }
      ],
      "name": "setFeeBps",
      "outputs": [],
      "stateMutability": "nonpayable",
      "type": "function"
    },
    {
      "inputs": [
        {
          "internalType": "address",
          "name": "_newCollector",
          "type": "address"
        }
      ],
      "name": "setFeeCollector",
      "outputs": [],
      "stateMutability": "nonpayable",
      "type": "function"
    },
    {
      "inputs": [
        {
          "internalType": "uint256",
          "name": "_newThreshold",
          "type": "uint256"
        }
      ],
      "name": "setUsdThresholdInWei",
      "outputs": [],
      "stateMutability": "nonpayable",
      "type": "function"
    },
    {
      "inputs": [
        {
          "internalType": "address",
          "name": "newOwner",
          "type": "address"
        }
      ],
      "name": "transferOwnership",
      "outputs": [],
      "stateMutability": "nonpayable",
      "type": "function"
    },
    {
      "inputs": [],
      "name": "usdThresholdInWei",
      "outputs": [
        {
          "internalType": "uint256",
          "name": "",
          "type": "uint256"
        }
      ],
      "stateMutability": "view",
      "type": "function"
    }
  ],
  "bytecode": "0x608060405234801561001057600080fd5b506040516112f83803806112f88339818101604052810190610032919061026a565b83600073ffffffffffffffffffffffffffffffffffffffff168173ffffffffffffffffffffffffffffffffffffffff16036100a55760006040517f1e4fbdf700000000000000000000000000000000000000000000000000000000815260040161009c91906102e0565b60405180910390fd5b6100b48161010d60201b60201c565b5082600160006101000a81548173ffffffffffffffffffffffffffffffffffffffff021916908373ffffffffffffffffffffffffffffffffffffffff1602179055508160028190555080600381905550505050506102fb565b60008060009054906101000a900473ffffffffffffffffffffffffffffffffffffffff169050816000806101000a81548173ffffffffffffffffffffffffffffffffffffffff021916908373ffffffffffffffffffffffffffffffffffffffff1602179055508173ffffffffffffffffffffffffffffffffffffffff168173ffffffffffffffffffffffffffffffffffffffff167f8be0079c531659141344cd1fd0a4f28419497f9722a3daafe3b4186f6b6457e060405160405180910390a35050565b600080fd5b600073ffffffffffffffffffffffffffffffffffffffff82169050919050565b6000610201826101d6565b9050919050565b610211816101f6565b811461021c57600080fd5b50565b60008151905061022e81610208565b92915050565b6000819050919050565b61024781610234565b811461025257600080fd5b50565b6000815190506102648161023e565b92915050565b60008060008060808587031215610284576102836101d1565b5b60006102928782880161021f565b94505060206102a38782880161021f565b93505060406102b487828801610255565b92505060606102c587828801610255565b91505092959194509250565b6102da816101f6565b82525050565b60006020820190506102f560008301846102d1565b92915050565b610fee8061030a6000396000f3fe6080604052600436106100915760003560e01c8063a42dce8011610059578063a42dce8014610148578063c415b95c14610171578063c4f853861461019c578063f2fde38b146101c5578063fd72ab59146101ee57610091565b806324a9d85314610096578063715018a6146100c157806372c27b62146100d857806385d6bff1146101015780638da5cb5b1461011d575b600080fd5b3480156100a257600080fd5b506100ab610219565b6040516100b8919061094f565b60405180910390f35b3480156100cd57600080fd5b506100d661021f565b005b3480156100e457600080fd5b506100ff60048036038101906100fa91906109a0565b610233565b005b61011b60048036038101906101169190610a90565b6102c1565b005b34801561012957600080fd5b506101326105cd565b60405161013f9190610aff565b60405180910390f35b34801561015457600080fd5b5061016f600480360381019061016a9190610b1a565b6105f6565b005b34801561017d57600080fd5b506101866106e8565b6040516101939190610aff565b60405180910390f35b3480156101a857600080fd5b506101c360048036038101906101be91906109a0565b61070e565b005b3480156101d157600080fd5b506101ec60048036038101906101e79190610b1a565b610757565b005b3480156101fa57600080fd5b506102036107dd565b604051610210919061094f565b60405180910390f35b60025481565b6102276107e3565b610231600061086a565b565b61023b6107e3565b6103e8811115610280576040517f08c379a000000000000000000000000000000000000000000000000000000000815260040161027790610ba4565b60405180910390fd5b806002819055507f0399aa81c69e33acc2ff42d0f7a0809e6bf4c10ff3c3a7e040b12fedc14602f2816040516102b6919061094f565b60405180910390a150565b60003411610304576040517f08c379a00000000000000000000000000000000000000000000000000000000081526004016102fb90610c10565b60405180910390fd5b600073ffffffffffffffffffffffffffffffffffffffff168373ffffffffffffffffffffffffffffffffffffffff1603610373576040517f08c379a000000000000000000000000000000000000000000000000000000000815260040161036a90610c7c565b60405180910390fd5b6000343373ffffffffffffffffffffffffffffffffffffffff16316103989190610ccb565b905060006003548210156103c457612710600254346103b79190610cff565b6103c19190610d70565b90505b600081346103d29190610ccb565b905060008673ffffffffffffffffffffffffffffffffffffffff16826040516103fa90610dd2565b60006040518083038185875af1925050503d8060008114610437576040519150601f19603f3d011682016040523d82523d6000602084013e61043c565b606091505b5050905080610480576040517f08c379a000000000000000000000000000000000000000000000000000000000815260040161047790610e33565b60405180910390fd5b6000831115610559576000600160009054906101000a900473ffffffffffffffffffffffffffffffffffffffff1673ffffffffffffffffffffffffffffffffffffffff16846040516104d190610dd2565b60006040518083038185875af1925050503d806000811461050e576040519150601f19603f3d011682016040523d82523d6000602084013e610513565b606091505b5050905080610557576040517f08c379a000000000000000000000000000000000000000000000000000000000815260040161054e90610e9f565b60405180910390fd5b505b8673ffffffffffffffffffffffffffffffffffffffff163373ffffffffffffffffffffffffffffffffffffffff167fe932c2fd6649c1e57699998a2520fbb85815ebfef01d9dc99bd02a721dbf277a84868a8a6040516105bc9493929190610f0c565b60405180910390a350505050505050565b60008060009054906101000a900473ffffffffffffffffffffffffffffffffffffffff16905090565b6105fe6107e3565b600073ffffffffffffffffffffffffffffffffffffffff168173ffffffffffffffffffffffffffffffffffffffff160361066d576040517f08c379a000000000000000000000000000000000000000000000000000000000815260040161066490610f98565b60405180910390fd5b80600160006101000a81548173ffffffffffffffffffffffffffffffffffffffff021916908373ffffffffffffffffffffffffffffffffffffffff1602179055507fe5693914d19c789bdee50a362998c0bc8d035a835f9871da5d51152f0582c34f816040516106dd9190610aff565b60405180910390a150565b600160009054906101000a900473ffffffffffffffffffffffffffffffffffffffff1681565b6107166107e3565b806003819055507fadfa8ecb21b6962ebcd0adbd9ab985b7b4c5b5eb3b0dead683171565c7bfe1718160405161074c919061094f565b60405180910390a150565b61075f6107e3565b600073ffffffffffffffffffffffffffffffffffffffff168173ffffffffffffffffffffffffffffffffffffffff16036107d15760006040517f1e4fbdf70000000000000000000000000000000000000000000000000000000081526004016107c89190610aff565b60405180910390fd5b6107da8161086a565b50565b60035481565b6107eb61092e565b73ffffffffffffffffffffffffffffffffffffffff166108096105cd565b73ffffffffffffffffffffffffffffffffffffffff16146108685761082c61092e565b6040517f118cdaa700000000000000000000000000000000000000000000000000000000815260040161085f9190610aff565b60405180910390fd5b565b60008060009054906101000a900473ffffffffffffffffffffffffffffffffffffffff169050816000806101000a81548173ffffffffffffffffffffffffffffffffffffffff021916908373ffffffffffffffffffffffffffffffffffffffff1602179055508173ffffffffffffffffffffffffffffffffffffffff168173ffffffffffffffffffffffffffffffffffffffff167f8be0079c531659141344cd1fd0a4f28419497f9722a3daafe3b4186f6b6457e060405160405180910390a35050565b600033905090565b6000819050919050565b61094981610936565b82525050565b60006020820190506109646000830184610940565b92915050565b600080fd5b600080fd5b61097d81610936565b811461098857600080fd5b50565b60008135905061099a81610974565b92915050565b6000602082840312156109b6576109b561096a565b5b60006109c48482850161098b565b91505092915050565b600073ffffffffffffffffffffffffffffffffffffffff82169050919050565b60006109f8826109cd565b9050919050565b610a08816109ed565b8114610a1357600080fd5b50565b600081359050610a25816109ff565b92915050565b600080fd5b600080fd5b600080fd5b60008083601f840112610a5057610a4f610a2b565b5b8235905067ffffffffffffffff811115610a6d57610a6c610a30565b5b602083019150836001820283011115610a8957610a88610a35565b5b9250929050565b600080600060408486031215610aa957610aa861096a565b5b6000610ab786828701610a16565b935050602084013567ffffffffffffffff811115610ad857610ad761096f565b5b610ae486828701610a3a565b92509250509250925092565b610af9816109ed565b82525050565b6000602082019050610b146000830184610af0565b92915050565b600060208284031215610b3057610b2f61096a565b5b6000610b3e84828501610a16565b91505092915050565b600082825260208201905092915050565b7f4d61782031302520666565000000000000000000000000000000000000000000600082015250565b6000610b8e600b83610b47565b9150610b9982610b58565b602082019050919050565b60006020820190508181036000830152610bbd81610b81565b9050919050565b7f5061796d656e74206d757374206265203e203000000000000000000000000000600082015250565b6000610bfa601383610b47565b9150610c0582610bc4565b602082019050919050565b60006020820190508181036000830152610c2981610bed565b9050919050565b7f526563697069656e742072657175697265640000000000000000000000000000600082015250565b6000610c66601283610b47565b9150610c7182610c30565b602082019050919050565b60006020820190508181036000830152610c9581610c59565b9050919050565b7f4e487b7100000000000000000000000000000000000000000000000000000000600052601160045260246000fd5b6000610cd682610936565b9150610ce183610936565b9250828203905081811115610cf957610cf8610c9c565b5b92915050565b6000610d0a82610936565b9150610d1583610936565b9250828202610d2381610936565b91508282048414831517610d3a57610d39610c9c565b5b5092915050565b7f4e487b7100000000000000000000000000000000000000000000000000000000600052601260045260246000fd5b6000610d7b82610936565b9150610d8683610936565b925082610d9657610d95610d41565b5b828204905092915050565b600081905092915050565b50565b6000610dbc600083610da1565b9150610dc782610dac565b600082019050919050565b6000610ddd82610daf565b9150819050919050565b7f526563697069656e74207472616e73666572206661696c656400000000000000600082015250565b6000610e1d601983610b47565b9150610e2882610de7565b602082019050919050565b60006020820190508181036000830152610e4c81610e10565b9050919050565b7f466565207472616e73666572206661696c656400000000000000000000000000600082015250565b6000610e89601383610b47565b9150610e9482610e53565b602082019050919050565b60006020820190508181036000830152610eb881610e7c565b9050919050565b82818337600083830152505050565b6000601f19601f8301169050919050565b6000610eeb8385610b47565b9350610ef8838584610ebf565b610f0183610ece565b840190509392505050565b6000606082019050610f216000830187610940565b610f2e6020830186610940565b8181036040830152610f41818486610edf565b905095945050505050565b7f496e76616c696420616464726573730000000000000000000000000000000000600082015250565b6000610f82600f83610b47565b9150610f8d82610f4c565b602082019050919050565b60006020820190508181036000830152610fb181610f75565b905091905056fea26469706673582212206c327a7ae750b5a4dcd5d2240fe9c20f8b24ff230d8338dbeb75abb765ff2f1e64736f6c634300081c0033",
  "linkReferences": {},
  "deployedLinkReferences": {}
}