{
  "_format": "hh-sol-artifact-1",
  "contractName": "PendingClaimETH",
  "sourceName": "contracts/PendingClaimETH.sol",
  "abi": [
    {
      "anonymous": false,
      "inputs": [
        {
          "indexed": false,
          "internalType": "address",
          "name": "recipient",
          "type": "address"
        },
        {
          "indexed": false,
          "internalType": "uint256",
          "name": "amount",
          "type": "uint256"
        }
      ],
      "name": "ClaimFundsEvent",
      "type": "event"
    },
    {
      "anonymous": false,
      "inputs": [
        {
          "indexed": false,
          "internalType": "bytes32",
          "name": "recipientHash",
          "type": "bytes32"
        },
        {
          "indexed": false,
          "internalType": "uint256",
          "name": "amount",
          "type": "uint256"
        }
      ],
      "name": "PendingTransferEvent",
      "type": "event"
    },
    {
      "inputs": [
        {
          "internalType": "bytes32",
          "name": "recipientHash",
          "type": "bytes32"
        },
        {
          "internalType": "address",
          "name": "recipient",
          "type": "address"
        }
      ],
      "name": "claimFunds",
      "outputs": [],
      "stateMutability": "nonpayable",
      "type": "function"
    },
    {
      "inputs": [
        {
          "internalType": "bytes32",
          "name": "recipientHash",
          "type": "bytes32"
        }
      ],
      "name": "createPendingTransfer",
      "outputs": [],
      "stateMutability": "payable",
      "type": "function"
    },
    {
      "inputs": [
        {
          "internalType": "bytes32",
          "name": "recipientHash",
          "type": "bytes32"
        }
      ],
      "name": "getPendingAmount",
      "outputs": [
        {
          "internalType": "uint256",
          "name": "",
          "type": "uint256"
        }
      ],
      "stateMutability": "view",
      "type": "function"
    },
    {
      "inputs": [
        {
          "internalType": "bytes32",
          "name": "",
          "type": "bytes32"
        }
      ],
      "name": "pendingTransfers",
      "outputs": [
        {
          "internalType": "uint256",
          "name": "amount",
          "type": "uint256"
        }
      ],
      "stateMutability": "view",
      "type": "function"
    }
  ],
  "bytecode": "0x6080604052348015600f57600080fd5b5061074b8061001f6000396000f3fe60806040526004361061003f5760003560e01c806325cdd19d146100445780636f1d2da5146100815780638d4ab2c0146100aa578063dbe0ea4a146100e7575b600080fd5b34801561005057600080fd5b5061006b600480360381019061006691906103a8565b610103565b60405161007891906103ee565b60405180910390f35b34801561008d57600080fd5b506100a860048036038101906100a39190610467565b610122565b005b3480156100b657600080fd5b506100d160048036038101906100cc91906103a8565b6102a4565b6040516100de91906103ee565b60405180910390f35b61010160048036038101906100fc91906103a8565b6102c2565b005b6000806000838152602001908152602001600020600001549050919050565b600080600084815260200190815260200160002060405180602001604052908160008201548152505090506000816000015111610194576040517f08c379a000000000000000000000000000000000000000000000000000000000815260040161018b90610504565b60405180910390fd5b600080848152602001908152602001600020600080820160009055505060008273ffffffffffffffffffffffffffffffffffffffff1682600001516040516101db90610555565b60006040518083038185875af1925050503d8060008114610218576040519150601f19603f3d011682016040523d82523d6000602084013e61021d565b606091505b5050905080610261576040517f08c379a0000000000000000000000000000000000000000000000000000000008152600401610258906105b6565b60405180910390fd5b7f38d1da3ff8a58d9836d45f4d5f175e665e23389c099e2617d535b787579f40e48383600001516040516102969291906105e5565b60405180910390a150505050565b60006020528060005260406000206000915090508060000154905081565b60003411610305576040517f08c379a00000000000000000000000000000000000000000000000000000000081526004016102fc9061065a565b60405180910390fd5b34600080838152602001908152602001600020600001600082825461032a91906106a9565b925050819055507ff0fd9e1f255517abc411436793cb205762733b0d03f407b1a0667ba711252ba181346040516103629291906106ec565b60405180910390a150565b600080fd5b6000819050919050565b61038581610372565b811461039057600080fd5b50565b6000813590506103a28161037c565b92915050565b6000602082840312156103be576103bd61036d565b5b60006103cc84828501610393565b91505092915050565b6000819050919050565b6103e8816103d5565b82525050565b600060208201905061040360008301846103df565b92915050565b600073ffffffffffffffffffffffffffffffffffffffff82169050919050565b600061043482610409565b9050919050565b61044481610429565b811461044f57600080fd5b50565b6000813590506104618161043b565b92915050565b6000806040838503121561047e5761047d61036d565b5b600061048c85828601610393565b925050602061049d85828601610452565b9150509250929050565b600082825260208201905092915050565b7f4e6f2070656e64696e67207472616e7366657200000000000000000000000000600082015250565b60006104ee6013836104a7565b91506104f9826104b8565b602082019050919050565b6000602082019050818103600083015261051d816104e1565b9050919050565b600081905092915050565b50565b600061053f600083610524565b915061054a8261052f565b600082019050919050565b600061056082610532565b9150819050919050565b7f455448207472616e73666572206661696c656400000000000000000000000000600082015250565b60006105a06013836104a7565b91506105ab8261056a565b602082019050919050565b600060208201905081810360008301526105cf81610593565b9050919050565b6105df81610429565b82525050565b60006040820190506105fa60008301856105d6565b61060760208301846103df565b9392505050565b7f4d7573742073656e642045544800000000000000000000000000000000000000600082015250565b6000610644600d836104a7565b915061064f8261060e565b602082019050919050565b6000602082019050818103600083015261067381610637565b9050919050565b7f4e487b7100000000000000000000000000000000000000000000000000000000600052601160045260246000fd5b60006106b4826103d5565b91506106bf836103d5565b92508282019050808211156106d7576106d661067a565b5b92915050565b6106e681610372565b82525050565b600060408201905061070160008301856106dd565b61070e60208301846103df565b939250505056fea26469706673582212205a1f73cb5f4de9f15dd7791d807c2c22ee031052260024e1e0a87b94efd05d8964736f6c634300081c0033",
  "linkReferences": {},
  "deployedLinkReferences": {}
}